S01700004156524C6F5261446576426F6172642E73726563AF
S11300000C947A000C9497000C9497000C9497002D
S11300100C9497000C9497000C9497000C94970000
S11300200C9497000C9497000C9497000C949700F0
S11300300C9497000C9497000C9497000C949700E0
S11300400C9497000C9497000C9497000C949700D0
S11300500C9497000C9497000C9497000C949700C0
S11300600C9497000C9497000C9497000C949700B0
S11300700C9497000C9497000C9497000C949700A0
S11300800C9497000C9497000C9497000C94970090
S11300900C9497000C9497000C9497000C94970080
S11300A00C9497000C9497000C9497000C94970070
S11300B00C9497000C9497000C9497000C94970060
S11300C00C9497000C9497000C9497000C94970050
S11300D00C9497000C9497000C9497000C94970040
S11300E00C9497000C9497000C9497000C94970030
S11300F00C94970011241FBECFEFCDBFDFE7DEBF06
S113010010E6A0E0B0E6EAE3F8E002C005900D9244
S1130110A830B107D9F720E6A8E0B0E601C01D92E7
S1130120AF3BB207E1F70E949F020C941B040C94AE
S11301300000E6EBF0E671E0708380E094E08183F8
S11301409283E0E5F0E662E0608381839283E5E9EF
S1130150F0E654E0508381839283EDE7F0E628E0F3
S1130160208381839283E0EBF0E640E14083818346
S11301709283E4EAF0E630E2308381839283A4E45C
S1130180B0E6F0E4FC9311968D939C931297ACE83F
S1130190B0E6E0E8EC9311968D939C931297A3E854
S11301A0B0E67C9380E494E011968D939C9312972F
S11301B0A1E4B0E66C9311968D939C931297AAEAEE
S11301C0B0E65C9311968D939C931297ADE4B0E6E0
S11301D02C9311968D939C931297ABE0B0E64C93BD
S11301E011968D939C931297A9EBB0E63C931196CC
S11301F08D939C931297AFE8B0E6FC9311968D9380
S11302009C931297ADEAB0E6EC9311968D939C9370
S11302101297A3EBB0E67C9380E694E011968D935D
S11302209C931297A8E9B0E66C9311968D939C93D6
S11302301297A1EAB0E65C9311968D939C93129762
S1130240A0E8B0E62C9311968D939C931297AEE39D
S1130250B0E64C9311968D939C931297A2E9B0E665
S11302603C9311968D939C931297A8E0B0E6FC936F
S113027011968D939C931297AEE9B0E6EC93119688
S11302808D939C931297EBE9F0E6208380E894E049
S113029081839283E7E4F0E6708380EA94E08183CB
S11302A09283E6E8F0E6608381839283E9E8F0E6EE
S11302B0508381839283ECEBF0E6208381839283E5
S11302C0E7EAF0E6408381839283EAE4F0E6308350
S11302D081839283E3E5F0E68091B6609091B76004
S11302E0A091B86080839183A283809150609091A3
S11302F05160A091526083839483A583809195601B
S113030090919660A091976086839783A08780914F
S11303107D6090917E60A0917F6081879287A387A2
S11303208091B0609091B160A091B260848795870C
S1130330A6878091A4609091A560A091A66087870C
S1130340908BA18B8091446090914560A091466010
S1130350828B938BA48B80918C6090918D60A09103
S11303608E60858B968BA78BEEE0F0E680918360A0
S113037090918460A091856080839183A283809111
S1130380416090914260A091436083839483A583EC
S11303908091AA609091AB60A091AC6086839783B2
S11303A0A08780914D6090914E60A0914F608187AD
S11303B09287A38780910B6090910C60A0910D604F
S11303C084879587A6878091B9609091BA60A0913F
S11303D0BB608787908BA18B80918F609091906098
S11303E0A0919160828B938BA48B8091AD6090914E
S11303F0AE60A091AF60858B968BA78B8091B36024
S11304009091B460A091B560808F918FA28F8091FC
S1130410986090919960A0919A60838F948FA58F32
S11304208091A1609091A260A091A360868F978F24
S1130430A0A38091806090918160A091826081A34B
S113044092A3A3A380913E6090913F60A0914060ED
S113045084A395A3A6A38091926090919360A091A8
S1130460946087A390A7A1A78091086090910960E8
S1130470A0910A6082A793A7A4A780919E609091FF
S11304809F60A091A06085A796A7A7A7EBE6F0E6DA
S11304908091476090914860A091496080839183E6
S11304A0A2838091866090918760A0918860838305
S11304B09483A5838091896090918A60A0918B60D8
S11304C086839783A0878091BC609091BD60A09142
S11304D0BE6081879287A3878091A7609091A8606E
S11304E0A091A96084879587A68780914A6090919E
S11304F04B60A0914C608787908BA18B08958FEF00
S11305008093010480934104809361041092A104B8
S11305100895442321F0E72FF82F65830895E72FEA
S1130520F82F66830895E72FF82F80850895FA0140
S11305308083918312821382648375830895CF9399
S1130540DF93CDB7DEB72897CDBFDEBF0E947F0211
S11305500E9499000E94B9030E94030388E0E0E02E
S1130560F0E6DE01119601900D928A95E1F7609113
S1130570B6607091B7608091B86040E00E948902D3
S113058041E050E068E070E0CE0101960E944D0326
S113059080E090E0DC0104C000000196A11DB11DC3
S11305A080342BE492072CE4A207B105A8F36091F0
S11305B0B6607091B7608091B86041E00E94890292
S11305C0D6CFCF93C82F692F80E20E94EE036C2F01
S11305D081E20E94EE03CF91089560E181E00E94E0
S11305E0EE0381E00E94D103803109F0FFCF08952A
S11305F061E181E00E94EE0381E00E94D103813138
S113060009F0FFCF089560919B6070919C60809188
S11306109D6040E00E9489020E94ED0260E08EE04D
S11306200E94EE0360E08FE00E94EE030E94F80255
S113063068E78DE10E94EE0364EC8EE10E94EE0314
S113064060E086E20E94EE0388E090E00E94E1020E
S113065060EE86E00E94EE0360E087E00E94EE0315
S113066060E088E00E94EE0360EF89E00E94EE0300
S113067060919B6070919C6080919D6041E00E94BC
S11306808902089563E181E00E94EE0381E00E9403
S1130690D103833109F0FFCF0895CF92DF92EF9217
S11306A0FF920F931F93CF93DF93CDB7DEB72897B5
S11306B0CDBFDEBF6C017B018A0160919B607091AC
S11306C09C6080919D6040E00E948902AE014F5F72
S11306D05F4F88E0FA0111928A95E9F7B701C801E2
S11306E00E94970280E00E940C0400E010E00BC01E
S11306F0E1E0F0E0EC0FFD1FE00FF11F80810E94AC
S11307000C040F5F1F4F0830110590F300E010E058
S113071008C0F601E00FF11F80810E940C040F5FF6
S11307201F4F0E151F05A8F360E480E40E94EE033A
S11307300E944203609147607091486080914960D3
S11307400E9493028823B1F360919B6070919C6036
S113075080919D6041E00E9489022896CDBFDEBF52
S1130760DF91CF911F910F91FF90EF90DF90CF9089
S1130770089581E08093E4058DE08093810488E00E
S1130780809393048093850481E28093400980EEF2
S1130790809342098FE697E10197F1F700C00000CA
S11307A008959091430995FFFCCF8093440980916B
S11307B0430986FFFCCF809143098823E4F78091A5
S11307C0430985FFFCCF8091430986FFFCCF8091CC
S11307D043098823E4F7809144090895806890913F
S11307E0430995FFFCCF809344098091430986FF18
S11307F0FCCF809143098823E4F78091430985FF66
S1130800FCCF609344098091430986FFFCCF80911B
S113081043098823E4F708959091430995FFFCCF99
S1130820809344098091430986FFFCCF809143095A
S10D08308823E4F70895F894FFCF3D
S10B083AAA5500FFDEADBEEF7C
S9030000FC
