S01700004156524C6F5261446576426F6172642E73726563AF
S11300000C947A000C9497000C9497000C9497002D
S11300100C9497000C9497000C9497000C94970000
S11300200C9497000C9497000C9497000C949700F0
S11300300C9497000C9497000C9497000C949700E0
S11300400C9497000C9497000C9497000C949700D0
S11300500C9497000C9497000C9497000C949700C0
S11300600C9497000C9497000C9497000C949700B0
S11300700C9497000C9497000C9497000C949700A0
S11300800C9497000C9497000C9497000C94970090
S11300900C9497000C9497000C9497000C94970080
S11300A00C9497000C9497000C9497000C94970070
S11300B00C9497000C9497000C9497000C94970060
S11300C00C9497000C9497000C9497000C94970050
S11300D00C9497000C9497000C9497000C94970040
S11300E00C9497000C9497000C9497000C94970030
S11300F00C94970011241FBECFEFCDBFDFE7DEBF06
S113010010E6A0E0B0E6E2EBFCE002C005900D9240
S1130110A830B107D9F720E6A8E0B0E601C01D92E7
S1130120A63CB207E1F70E94DD020C9457060C943A
S11301300000109260001092610088ED84BF86E296
S113014080936800ACEBB0E6E1E0EC9380E094E0EF
S113015011968D939C931297A3E5B0E672E07C937D
S113016011968D939C931297ABE9B0E664E06C937F
S113017011968D939C931297A0E8B0E638E03C93D7
S113018011968D939C931297A6EBB0E620E12C93E5
S113019011968D939C931297AAEAB0E650E25C9371
S11301A011968D939C931297A7E4B0E640E44C9388
S11301B011968D939C931297A2E9B0E6F0E8FC9314
S11301C011968D939C931297A6E8B0E62C9380E247
S11301D094E011968D939C931297A9E8B0E6EC9362
S11301E080E494E011968D939C931297A4E4B0E676
S11301F07C9311968D939C931297A0EBB0E66C932D
S113020011968D939C931297A0E5B0E63C931196BA
S11302108D939C931297ABE0B0E62C9311968D933B
S11302209C931297AFEBB0E65C9311968D939C93DD
S11302301297A5E9B0E64C9311968D939C9312976F
S1130240A3EBB0E6FC9311968D939C931297A9EBC4
S1130250B0E6EC9380E694E011968D939C9312970C
S1130260AEE9B0E67C9311968D939C931297A7EA1E
S1130270B0E66C9311968D939C931297A3E8B0E625
S11302803C9311968D939C931297A1E4B0E62C9322
S113029011968D939C931297A8E9B0E65C931196FE
S11302A08D939C931297A8E0B0E64C9311968D938E
S11302B09C931297A4EAB0E6FC9311968D939C93B9
S11302C01297A1EAB0E63C9380E894E011968D93EE
S11302D09C931297AAE4B0E6EC9380EA94E011961A
S11302E08D939C931297ECE8F0E67083818392835C
S11302F0EFE8F0E6608381839283E2ECF0E63083FA
S113030081839283EDEAF0E6208381839283EDE496
S1130310F0E6508381839283EEE0F0E640838183AC
S11303209283E6E5F0E68091BC609091BD60A09177
S1130330BE6080839183A2838091536090915460C6
S1130340A091556083839483A58380919B60909151
S11303509C60A0919D6086839783A0878091806034
S113036090918160A091826081879287A387809118
S1130370B6609091B760A091B86084879587A6878E
S11303808091AA609091AB60A091AC608787908BBC
S1130390A18B8091476090914860A0914960828BC5
S11303A0938BA48B8091926090919360A0919460C0
S11303B0858B968BA78BE1E1F0E680918960909123
S11303C08A60A0918B6080839183A2838091446032
S11303D090914560A091466083839483A583809126
S11303E0B0609091B160A091B26086839783A0873A
S11303F08091506090915160A09152608187928762
S1130400A38780910B6090910C60A0910D6084870C
S11304109587A6878091BF609091C060A091C160CC
S11304208787908BA18B8091956090919660A09125
S11304309760828B938BA48B8091B3609091B4600E
S1130440A091B560858B968BA78B8091B9609091B4
S1130450BA60A091BB60808F918FA28F80919E60C3
S113046090919F60A091A060838F948FA58F8091BD
S1130470A7609091A860A091A960868F978FA0A390
S11304808091836090918460A091856081A392A300
S1130490A3A38091416090914260A091436084A3A2
S11304A095A3A6A38091986090919960A0919A6079
S11304B087A390A7A1A78091086090910960A0915B
S11304C00A6082A793A7A4A78091A4609091A560D5
S11304D0A091A66085A796A7A7A7EEE6F0E680916F
S11304E04A6090914B60A0914C6080839183A28379
S11304F080918C6090918D60A0918E6083839483B1
S1130500A58380918F6090919060A0919160868383
S11305109783A0878091C2609091C360A091C460CA
S113052081879287A3878091AD609091AE60A091FE
S1130530AF6084879587A68780914D6090914E60C7
S1130540A0914F608787908BA18B0895442321F05D
S1130550E72FF82F65830895E72FF82F6683089512
S11305608FEF80930104809321048093410480934E
S113057061048DE08093810488E0809393048093E8
S113058085041092A10460918660709187608091C7
S1130590886041E00E94A6020895E72FF82F808525
S11305A086230895FA0190838183128281E08383F4
S11305B074836583168217820895CF93DF93CDB732
S11305C0DEB7C259D109CDBFDEBF0E9499000E9497
S11305D0B0020E94CD050E94670488E0E0E0F0E6E6
S11305E0DE01119601900D928A95E1F7C757DF4F0E
S11305F018821982C958D040C557DF4F1882198212
S1130600CB58D040C357DF4F18821982CD58D04001
S1130610C157DF4F18821982CF58D040CE010996B6
S1130620CF56DF4F88839983C159D0400E94220559
S113063060910E6070910F60809110600E94CD02F5
S1130640811125C06091BC607091BD608091BE60D5
S113065041E00E94A60241E050E068E070E0CE0173
S113066001960E94AC040E9422052FEF8DE399E4C9
S1130670215080409040E1F700C000006091BC60D0
S11306807091BD608091BE6040E00E94A6020E940D
S11306909803823069F6CE0187579F4F0E942F0539
S11306A010E016C0CF56DF4F28813981C159D040A0
S11306B0F901E80FF91F80810E94CA032FEF82E538
S11306C097E0215080409040E1F700C000001F5F98
S11306D0812F90E0C357DF4F28813981CD58D04016
S11306E082179307F8F20E949404C757DF4F48819A
S11306F05981C958D040C357DF4F68817981CD589B
S1130700D040CF56DF4F88819981C159D0400E9493
S1130710AC040E9422058CCFCF93C82F692F80E2AE
S11307200E942E066C2F81E20E942E06CF9108951E
S11307308091C560833071F460914A6070914B6020
S113074080914C600E94CD02882321F081E0809347
S1130750C56008958091C5608630B1F460914A60A7
S113076070914B6080914C600E94CD0281110EC04B
S113077060918C6070918D6080918E600E94CD023A
S1130780882331F083E0089580E0089582E008959D
S113079080E008950F931F93CF93C82F482F417083
S11307A006E510E6F8016081718182810E94A6024B
S11307B04C2F427050E055954795F8016381748140
S11307C085810E94A6024C2F447050E055954795B0
S11307D055954795F8016681778180850E94A60228
S11307E04C2F487050E0559547955595479555952C
S11307F04795F8016185728583850E94A6024C2F76
S1130800407150E0559547955595479555954795B1
S113081055954795F8016485758586850E94A602DD
S11308204C2F407250E055954795559547955595F1
S113083047955595479555954795F801678570896E
S113084081890E94A6024C2F407450E0042E452F4B
S1130850000C441F550B000C441F551FF8016289FE
S1130860738984890E94A6024C2F441F4427441F85
S1130870F8016589768987890E94A602CF911F9124
S11308800F910895CF9360E881E00E942E0681E0E5
S11308900E940A06C82F0E94CA03C03809F0FFCF7D
S11308A01092C560CF910895CF9361E881E00E94D2
S11308B02E0681E00E940A06C82F0E94CA03C1388E
S11308C009F0FFCF81E08093C560CF9108950E9425
S11308D0420460E08EE00E942E0660E08FE00E94F9
S11308E02E060E94540468E78DE10E942E0664ECF3
S11308F08EE10E942E0660E086E20E942E0688E0C9
S113090090E00E948C0360EE86E00E942E0660E078
S113091087E00E942E0660E088E00E942E066AEFBF
S113092089E00E942E0608950E9454046FEF82E12C
S11309300E942E0660E080E10E942E06089563E87E
S113094081E00E942E0681E00E940A060E94CA03EA
S113095083E08093C5600895CF92DF92EF92FF9277
S11309600F931F93CF93DF93CDB7DEB72897CDBFF7
S1130970DEBF6C017B01CA01AE014F5F5F4F28E00F
S1130980FA0111922A95E9F70E94D20260E08DE003
S11309900E942E0600E010E00CC0E1E0F0E0EC0F55
S11309A0FD1FE00FF11F608180E00E942E060F5FA3
S11309B01F4F0830110588F300E010E009C0F6016C
S11309C0E00FF11F608180E00E942E060F5F1F4F31
S11309D00E151F05A0F360E480E40E942E0668E073
S11309E06E0D82E20E942E060E949F040E949803CC
S11309F08130E1F72896CDBFDEBFDF91CF911F9103
S1130A000F91FF90EF90DF90CF900895CF9365E81A
S1130A1081E00E942E062FE789EA93E0215080406E
S1130A209040E1F700C0000081E00E940A06C82F50
S1130A300E94CA03C53809F0FFCF86E08093C560E1
S1130A40CF9108950E9454046FEF82E10E942E0614
S1130A500E94060560E080E40E942E060895CF926D
S1130A60DF92EF92FF920F931F93CF93DF93CDB753
S1130A70DEB72897CDBFDEBF6C0183E10E940A0672
S1130A80082F0830F0F3FE01319688E0DF011D9253
S1130A908A95E9F780E10E940A06682F8DE00E949A
S1130AA02E0610E018C0E12EF12C80E00E940A0608
S1130AB0E1E0F0E0EC0FFD1FEE0DFF1D80830E94CE
S1130AC0CA03BFEFE2E5F7E0B150E040F040E1F7E0
S1130AD000C000001F5F183030F3898190E0982F28
S1130AE088272A81820F911DD6018D939C9311979B
S1130AF02B8130E0322F22274C81240F311D129696
S1130B002D933C9313972D8130E0322F22274E8171
S1130B10240F311D14962D933C9315974F8150E06B
S1130B20542F44276885460F511D16964D935C93A8
S1130B3017970197D9F4802F90E008972817390761
S1130B40D1F710E00BC0F601E084F184E80EF91E41
S1130B5080E00E940A06D7018C931F5F812F90E0EA
S1130B60F601248135818217930768F36FEF82E1E0
S1130B700E942E068AE10E940A0660E080E10E943B
S1130B802E062896CDBFDEBFDF91CF911F910F9126
S1130B90FF90EF90DF90CF90089581E08093E4057B
S1130BA0E0E4F9E080E2808380E88093410980EE0C
S1130BB0809342098081816080838FE697E1019769
S1130BC0F1F700C0000008958091430985FFFCCF30
S1130BD08FEF809344098091430986FFFCCF809175
S1130BE0440902C080914409909143099923D4F3A4
S1130BF090EC9093430908959091430995FFFCCF9D
S1130C00809344098091430986FFFCCF80EC809354
S1130C1043090895CF93C82F6091A1607091A26099
S1130C208091A36040E00E94A6028C2F0E94FC05E4
S1130C3080E003C0909144098F5F8230D8F30E9412
S1130C40E405C82F6091A1607091A2608091A360B7
S1130C5041E00E94A6028C2FCF9108951F93CF9359
S1130C60DF93C82F162F6091A1607091A2608091CC
S1130C70A36040E00E94A6028C2F80680E94FC05BD
S1130C80C0E4D9E08C81812F0E94FC058C816091A5
S1130C90A1607091A2608091A36041E00E94A602CD
S1130CA080EC80934309DF91CF911F910895F894CC
S1050CB0FFCF70
S10B0CB2AA55AA55AA55AA553A
S9030000FC
