S01700004156524C6F5261446576426F6172642E73726563AF
S11300000C947A000C9497000C9497000C9497002D
S11300100C9497000C9497000C9497000C94970000
S11300200C9497000C9497000C9497000C949700F0
S11300300C9497000C9497000C9497000C949700E0
S11300400C9497000C9497000C9497000C949700D0
S11300500C9497000C9497000C9497000C949700C0
S11300600C9497000C9497000C9497000C949700B0
S11300700C9497000C9497000C9497000C949700A0
S11300800C9497000C9497000C9497000C94970090
S11300900C9497000C9497000C9497000C94970080
S11300A00C9497000C9497000C9497000C94970070
S11300B00C9497000C9497000C9497000C94970060
S11300C00C9497000C9497000C9497000C94970050
S11300D00C9497000C9497000C9497000C94970040
S11300E00C9497000C9497000C9497000C94970030
S11300F00C94970011241FBECFEFCDBFDFE7DEBF06
S113010010E6A0E0B0E6EEE1FAE002C005900D9240
S1130110A830B107D9F720E6A8E0B0E601C01D92E7
S1130120A23CB207E1F70E94C4020C940D050C94A2
S11301300000109260001092610088ED84BF86E296
S113014080936800E9EBF0E671E0708380E094E06E
S113015081839283E0E5F0E662E0608381839283A9
S1130160E8E9F0E654E0508381839283EDE7F0E61A
S113017038E0308381839283E3EBF0E620E120834F
S113018081839283E7EAF0E640E2408381839283AD
S1130190A4E4B0E6F0E4FC9311968D939C9312973B
S11301A0AFE8B0E6E0E8EC9311968D939C93129738
S11301B0A3E8B0E62C9380E294E011968D939C938F
S11301C01297A6E8B0E67C9380E494E011968D93B0
S11301D09C931297A1E4B0E66C9311968D939C9333
S11301E01297ADEAB0E65C9311968D939C931297A7
S11301F0ADE4B0E63C9311968D939C931297ABE0DB
S1130200B0E62C9311968D939C931297ACEBB0E6C9
S11302104C9311968D939C931297A2E9B0E6FC93AC
S113022011968D939C931297A0EBB0E6EC931196E4
S11302308D939C931297A6EBB0E67C9380E694E0B2
S113024011968D939C931297ABE9B0E66C9311963B
S11302508D939C931297A4EAB0E65C9311968D93C8
S11302609C931297A0E8B0E63C9311968D939C93CF
S11302701297AEE3B0E62C9311968D939C9312974C
S1130280A5E9B0E64C9311968D939C931297A8E040
S1130290B0E6FC9311968D939C931297A1EAB0E675
S11302A0EC9311968D939C931297EEE9F0E63083CC
S11302B080E894E081839283E7E4F0E6708380EA47
S11302C094E081839283E9E8F0E6608381839283FA
S11302D0ECE8F0E6508381839283EFEBF0E6308321
S11302E081839283EAEAF0E6208381839283EAE4BD
S11302F0F0E6408381839283E3E5F0E68091B96080
S11303009091BA60A091BB6080839183A283809115
S1130310506090915160A091526083839483A5832F
S11303208091986090919960A0919A608683978358
S1130330A08780917D6090917E60A0917F6081878D
S11303409287A3878091B3609091B460A091B560C7
S113035084879587A6878091A7609091A860A091D3
S1130360A9608787908BA18B8091446090914560B0
S1130370A0914660828B938BA48B80918F60909127
S11303809060A0919160858B968BA78BEEE0F0E650
S11303908091866090918760A0918860808391832A
S11303A0A2838091416090914260A09143608383D5
S11303B09483A5838091AD609091AE60A091AF606D
S11303C086839783A08780914D6090914E60A09121
S11303D04F6081879287A38780910B6090910C6016
S11303E0A0910D6084879587A6878091BC609091C9
S11303F0BD60A091BE608787908BA18B8091926035
S113040090919360A0919460828B938BA48B809144
S1130410B0609091B160A091B260858B968BA78BF0
S11304208091B6609091B760A091B860808F918FF1
S1130430A28F80919B6090919C60A0919D60838F1E
S1130440948FA58F8091A4609091A560A091A660DF
S1130450868F978FA0A38091806090918160A091F6
S1130460826081A392A3A3A380913E6090913F6098
S1130470A091406084A395A3A6A3809195609091D8
S11304809660A091976087A390A7A1A78091086028
S113049090910960A0910A6082A793A7A4A7809174
S11304A0A1609091A260A091A36085A796A7A7A739
S11304B0EBE6F0E68091476090914860A091496036
S11304C080839183A2838091896090918A60A091B6
S11304D08B6083839483A58380918C6090918D60DD
S11304E0A0918E6086839783A0878091BF6090914E
S11304F0C060A091C16081879287A3878091AA6020
S11305009091AB60A091AC6084879587A687809119
S11305104A6090914B60A0914C608787908BA18B2F
S11305200895442321F0E72FF82F65830895E72FDA
S1130530F82F668308958FEF80930104809321043C
S113054080934104809361048DE08093810488E06A
S113055080939304809385041092A1046091836036
S1130560709184608091856041E00E9491020895B9
S1130570E72FF82F80850895FA01808391831282F2
S11305801382648375830895CF93DF93CDB7DEB769
S11305902897CDBFDEBF0E9499000E949B020E9453
S11305A083040E94EB0388E0E0E0F0E6DE011196AC
S11305B001900D928A95E1F741E050E068E070E027
S11305C0CE0101960E942304F12C2AC00F2D10E0C5
S11305D0C801880F991F080F191F0D5A1F49F801E8
S11305E060817181828141E00E949102FFEB24EDE0
S11305F081E0F15020408040E1F700C00000F801A4
S113060060817181828140E00E949102FFEB24EDC0
S113061081E0F15020408040E1F700C00000F394F5
S113062097E09F1598F60F2EF6E0FF2EF02D2AC0C6
S11306300F2D10E0C801880F991F080F191F0D5ABC
S11306401F49F80160817181828141E00E94910219
S1130650FFEB24ED81E0F15020408040E1F700C041
S11306600000F80160817181828140E00E94910262
S1130670FFEB24ED81E0F15020408040E1F700C021
S11306800000FA94F110D4CF9FCFCF93C82F692FD5
S113069080E20E94E4046C2F81E20E94E404CF9182
S11306A008950F931F93CF93C82F482F417003E5EC
S11306B010E6F8016081718182810E9491024C2FC1
S11306C0427050E055954795F801638174818581A6
S11306D00E9491024C2F447050E0559547955595D2
S11306E04795F8016681778180850E9491024C2F9D
S11306F0487050E0559547955595479555954795BC
S1130700F8016185728583850E9491024C2F4071A6
S113071050E0559547955595479555954795559569
S11307204795F8016485758586850E9491024C2F52
S1130730407250E055954795559547955595479581
S11307405595479555954795F80167857089818931
S11307500E9491024C2F407450E0042E452F000C4F
S1130760441F550B000C441F551FF80162897389FF
S113077084890E9491024C2F441F4427441FF8018E
S11307806589768987890E949102CF911F910F9183
S11307900895CF9360E881E00E94E40481E00E9420
S11307A0C004C82F90E00E945103C03809F0FFCF65
S11307B0CF910895CF9361E881E00E94E40481E041
S11307C00E94C004C82F90E00E945103C13809F070
S11307D0FFCFCF9108950E94C90360E08EE00E948C
S11307E0E40460E08FE00E94E4040E94DA0368E716
S11307F08DE10E94E40464EC8EE10E94E40460E074
S113080086E20E94E40488E090E00E94450360EEE2
S113081086E00E94E40460E087E00E94E40460E073
S113082088E00E94E40460EF89E00E94E4040895F3
S113083063E881E00E94E40481E00E94C00490E047
S11308400E9451030895CF92DF92EF92FF920F938B
S11308501F93CF93DF93CDB7DEB72897CDBFDEBF0D
S11308606C017B01CA01AE014F5F5F4F28E0FA01C2
S113087011922A95E9F70E94BC0260E08DE00E9483
S1130880E40400E010E00CC0E1E0F0E0EC0FFD1F38
S1130890E00FF11F608180E00E94E4040F5F1F4FAE
S11308A00830110588F300E010E009C0F601E00FFC
S11308B0F11F608180E00E94E4040F5F1F4F0E155A
S11308C01F05A0F360E480E40E94E40468E06E0D78
S11308D082E20E94E4040E941804609147607091CF
S11308E04860809149600E94B8028823B1F3289639
S11308F0CDBFDEBFDF91CF911F910F91FF90EF909D
S1130900DF90CF90089581E08093E405E0E4F9E07E
S113091080E2808380E88093410980EE80934209DD
S113092080818160808389EF90E00197F1F700C0B6
S1130930000008958091430985FFFCCF8FEF8093D9
S113094044098091430986FFFCCF8091440902C089
S113095080914409909143099923D4F390EC9093A6
S1130960430908959091430995FFFCCF809344096E
S11309708091430986FFFCCF80EC8093430908955E
S1130980CF93C82F60919E6070919F608091A0600A
S113099040E00E9491028C2F0E94B20480E003C0C8
S11309A0909144098F5F8230D8F30E949A04C82F33
S11309B060919E6070919F608091A06041E00E9470
S11309C091028C2FCF9108951F93CF93DF93C82F5B
S11309D0162F60919E6070919F608091A06040E0AE
S11309E00E9491028C2F80680E94B204C0E4D9E076
S11309F08C81812F0E94B2048C8160919E607091E1
S1130A009F608091A06041E00E94910280EC8093FD
S1110A104309DF91CF911F910895F894FFCF11
S10B0A1EAA5500FFDEADBEEF96
S9030000FC
